:020000040000FA
:100000000C9462000C948A000C948A000C940E06E6
:100010000C948A000C948A000C948A000C948A0038
:100020000C948A000C948A000C948A000C948A0028
:100030000C948A000C948A000C948A000C948A0018
:100040000C946C050C948A000C94DC050C94B60599
:100050000C948A000C948A000C948A000C948A00F8
:100060000C948A000C948A000000000025002800EF
:100070002B0000000000240027002A0000000000E0
:1000800023002600290004040404040404040202DA
:100090000202020203030303030301020408102007
:1000A0004080010204081020010204081020000012
:1000B0000008000201000003040700000000000027
:1000C0000000440C11241FBECFEFD8E0DEBFCDBF2F
:1000D00011E0A0E0B1E0E0EFF9E102C005900D927F
:1000E000A034B107D9F722E0A0E4B1E001C01D922D
:1000F000A43CB207E1F710E0C2E6D0E004C02197CB
:10010000FE010E94E10CC136D107C9F70E947D07AC
:100110000C94F60C0C940000482FE62F803108F464
:1001200043C02FE0829FC0011124CF966FE770E09B
:100130000E94710CF62FE617A9F1CB012E2F30E0AB
:10014000D90111966A177B07C1F42FE7269FC001DA
:10015000279F900D112407966FE070E00E94710CAC
:10016000685F7F4F4617170609F0E4F4FE2F1AC0A8
:100170002E2F30E0F0E090E080E0019682179307A8
:1001800089F4242F30E0285F3F4F4FE7E49FC00100
:10019000112407966FE070E00E94710C621713063D
:1001A00029F324F38F2F08956111E2CFF0E0FACF05
:1001B000982FFA018FEF890F8E3F70F0808186179C
:1001C00079F0608381E09F3F31F49181691751F0AC
:1001D000618391E0892B089580E09130B1F3089517
:1001E00080E0F1CF90E0F6CF90E0FC01E255FF4FC8
:1001F0002491FC01E656FF4F3491FC01EA57FF4F72
:10020000E491EE23C1F1222339F02330E9F090F498
:10021000213001F1223011F1F0E0EE0FFF1FE45820
:10022000FF4FA591B491EC91E32381E090E029F593
:1002300080E008952730A9F02830C9F0243061F714
:10024000809180008F7D03C0809180008F778093A4
:100250008000E2CF84B58F7784BDDECF84B58F7DFB
:10026000FBCF8091B0008F778093B000D5CF809185
:10027000B0008F7DF9CF80E090E00895CF93DF93B9
:1002800090E0FC01E656FF4F24918A579F4FFC01F6
:1002900084918823C9F090E0880F991FFC01EE58E3
:1002A000FF4FA591B491FC01E859FF4FC591D4913E
:1002B00061110DC09FB7F8948C91209582238C9387
:1002C0008881282328839FBFDF91CF9108956230D2
:1002D00051F49FB7F8943C91822F809583238C939F
:1002E000E8812E2BEFCF8FB7F894EC912E2B2C9327
:1002F0008FBFEACF8E3008F08E5087708064809375
:100300007C0080917A00806480937A0080917A00EA
:1003100086FDFCCF809178009091790008952FB7E9
:10032000F8946091AB027091AC028091AD02909113
:10033000AE022FBF0895AF92BF92CF92DF92EF929D
:10034000FF920F931F93CF93DF936C017B018B017F
:10035000040F151FEB015E01AE18BF08C017D107CF
:1003600059F06991D601ED91FC910190F081E02D59
:10037000C6010995892B79F7C501DF91CF911F91AE
:100380000F91FF90EF90DF90CF90BF90AF900895C6
:10039000FC01538D448D252F30E0842F90E0821B8B
:1003A000930B541710F0CF96089501970895FC0110
:1003B000918D828D981761F0A28DAE0FBF2FB11D68
:1003C0005D968C91928D9F5F9F73928F90E00895C0
:1003D0008FEF9FEF0895FC01918D828D981731F07A
:1003E000828DE80FF11D858D90E008958FEF9FEFCE
:1003F0000895FC01918D228D892F90E0805C9F4FA4
:10040000821B91098F739927089589E092E00E94D9
:10041000F90121E0892B09F420E0822F089580E082
:1004200090E0892B29F00E94050281110C940000B4
:100430000895FC01A48DA80FB92FB11DA35ABF4F79
:100440002C91848D90E001968F739927848FA689D3
:10045000B7892C93A089B1898C91837080648C9327
:10046000938D848D981306C00288F389E02D8081D6
:100470008F7D80830895EF92FF920F931F93CF9308
:10048000DF93EC0181E0888F9B8D8C8D98131AC0CF
:10049000E889F989808185FF15C09FB7F894EE89B6
:1004A000FF896083E889F989808183708064808313
:1004B0009FBF81E090E0DF91CF911F910F91FF905E
:1004C000EF900895F62E0B8D10E00F5F1F4F0F7306
:1004D0001127E02E8C8D8E110CC00FB607FCFACFC1
:1004E000E889F989808185FFF5CFCE010E94190244
:1004F000F1CFEB8DEC0FFD2FF11DE35AFF4FF08292
:100500009FB7F8940B8FEA89FB8980818062CFCFF7
:10051000CF93DF93EC01888D8823B9F0AA89BB893A
:10052000E889F9898C9185FD03C0808186FD0DC025
:100530000FB607FCF7CF8C9185FFF2CF808185FF46
:10054000EDCFCE010E941902E9CFDF91CF9108953E
:10055000CF9383ED80937A018DE380937B0180912B
:10056000F2014FE0849FC0011124CF962FE730E0C5
:10057000B9010E94710CFB0184E0EE0FFF1F8A9508
:10058000E1F78091F301849FC0011124CF96B90156
:100590000E94710CE62BE0937C018091F001849F16
:1005A000C0011124CF96B9010E94710CFB0194E0A7
:1005B000EE0FFF1F9A95E1F78091F101849FC00132
:1005C0001124CF96B9010E94710CE62BE0937D01B6
:1005D00080910701849FC0011124CF96B9010E9428
:1005E000710CFB0154E0EE0FFF1F5A95E1F780916B
:1005F0000801849FC0011124CF96B9010E94710C9B
:10060000E62BE0937E018091EE01849FC0011124CE
:10061000CF96B9010E94710CFB0164E0EE0FFF1F41
:100620006A95E1F78091EF01849FC0011124CF9674
:10063000B9010E94710CE62BE0937F0180910501C6
:1006400090E1899F90011124809106018F70822B87
:100650008093800185E00E94F400C1E0892B09F0BD
:10066000C0E086E00E94F400892B09F4C26087E0B4
:100670000E94F400892B09F4C46088E00E94F40011
:10068000892B09F4C860C0938101109282011092F5
:1006900083011092840110928501CF910895809179
:1006A000140190E0803238F091E0803420F093E043
:1006B000803608F492E08091180120E0803238F012
:1006C00021E0803420F023E0803608F422E088EA3C
:1006D00080936E018AE580936F018091160180936B
:1006E00070018091150130E0811130E88091130193
:1006F0008F77832B8093710180911A01809372010F
:100700008091190130E0811130E8809117018F77D5
:10071000832B8093730180911E01809374018091DB
:100720001D0130E0811130E880911B018F77832B10
:1007300080937501109276014091E80180E1489F15
:10074000A00111244093770130910501337044E0FA
:10075000949FC0011124832B809378018091E9013B
:1007600090E1899FA0011124809106018370842B60
:1007700044E0249F90011124822B809379010895F5
:10078000539A882311F05B9A08955B980895529AC2
:10079000882311F05A9A08955A980895E091040117
:1007A000F0E0EE56FE4F908180910201982381E0A7
:1007B00009F480E00E94C703E0910401F0E0EA57E9
:1007C000FE4F908180910201982381E009F480E03E
:1007D0000C94C0032091A6019091A50181E02913FA
:1007E00001C080E00E94C70380E00C94C003909198
:1007F000A6019F5F9093A6012091A6019091A5016B
:10080000291305C09091A6019F5F9093A601909136
:10081000A6019093A3018093A2018091A10181116F
:1008200002C00C94EA030895F8940E944F030E94BA
:10083000A80281E00E94F703789408951F93CF9354
:10084000DF93D82F162FC42F0E948F012D2F30E059
:10085000D901AA0FBB1FAA0FBB1FFD01ED5EFE4F02
:100860001083C11101C0C1E0FD01ED5EFE4FC183E7
:1008700051E0528343814F5F4383FD01ED54FD4FAF
:10088000608371838283938321553D4FF9011082E8
:10089000D23021F4F8945093C3027894DF91CF9131
:1008A0001F910C9414040E948F013091B701809124
:1008B000150120911901332321F19091A70188237B
:1008C00021F0809113018917D1F0809116018F5F7B
:1008D0008093160181E0909313019091A8019111EA
:1008E00001C091E09093140191E090931501323092
:1008F00070F4222331F11092190181E022C080E0CE
:10090000EACF882341F11092150181E0F2CF909156
:10091000A901222321F020911701291731F080919C
:100920001A018F5F80931A0181E0909317019091D3
:10093000AA01911101C091E09093180191E0909368
:1009400019011092AF021092B0021092B1028823E6
:1009500021F00C94140480E0CCCF08958F929F92E4
:10096000AF92BF92CF92DF92EF92FF921F93CF93FD
:10097000DF93C82FD0E07E01EE0CFF1CEE0CFF1CB5
:1009800097012D5E3E4F6901F9019081961314C0C5
:10099000182F0E948F01F701ED54FD4F8080918048
:1009A000A280B380681979098A099B09C155DD4F76
:1009B00097FF0EC081E08883DF91CF911F91FF9058
:1009C000EF90DF90CF90BF90AF909F908F90089561
:1009D000F601128218820E948F01123029F4F894D5
:1009E00081E08093C3027894DF91CF911F91FF90B3
:1009F000EF90DF90CF90BF90AF909F908F900C942E
:100A00001404CF92DF92EF92FF920F931F93CF9334
:100A1000DF93D82FC62F0E948F016B017C012C2FF2
:100A200030E0F901EA51FE4F6081662309F44BC0C2
:100A3000890108541E4FF8018081861708F0108242
:100A4000F8018081F90193E0EE0FFF1F9A95E1F71D
:100A500090E0E80FF91FEE0FFF1FE654FE4FC08134
:100A60004181019670E00E94850CF80180832D2F52
:100A700030E0C901880F991F880F991FFC01ED5EB6
:100A8000FE4FC083411101C041E0FC01ED5EFE4F0D
:100A9000418341E0428343814F5F43838D549D4FA7
:100AA000FC01C082D182E282F38221553D4FF901DF
:100AB0001082DF91CF911F910F91FF90EF90DF9007
:100AC000CF900C941404DF91CF911F910F91FF9060
:100AD000EF90DF90CF9008951F920F920FB60F9274
:100AE00011242F933F938F939F93AF93BF93809144
:100AF000AB029091AC02A091AD02B091AE023091E8
:100B0000AA0223E0230F2D3758F50196A11DB11D30
:100B10002093AA028093AB029093AC02A093AD0203
:100B2000B093AE028091A6029091A702A091A80274
:100B3000B091A9020196A11DB11D8093A6029093C8
:100B4000A702A093A802B093A902BF91AF919F9171
:100B50008F913F912F910F900FBE0F901F9018957E
:100B600026E8230F0296A11DB11DD2CF1F920F922E
:100B70000FB60F9211242F933F934F935F936F9370
:100B80007F938F939F93AF93BF93EF93FF9389E0EE
:100B900092E00E941902FF91EF91BF91AF919F9156
:100BA0008F917F916F915F914F913F912F910F9016
:100BB0000FBE0F901F9018951F920F920FB60F92B5
:100BC00011242F938F939F93EF93FF93E09119023A
:100BD000F0911A028081E0911F02F091200282FDC3
:100BE0001BC09081809122028F5F8F73209123021E
:100BF000821741F0E0912202F0E0E75FFD4F958F10
:100C000080932202FF91EF919F918F912F910F90EE
:100C10000FBE0F901F9018958081F4CF1F920F92F6
:100C20000FB60F9211242F933F934F935F936F93BF
:100C30007F938F939F93AF93BF93CF93EF93FF9344
:100C400083B1C1E0282F207184FFC0E0809184002F
:100C5000909185002223F9F020910301211107C012
:100C600090939F0180939E0181E08093A001C093A7
:100C70000301FF91EF91CF91BF91AF919F918F9120
:100C80007F916F915F914F913F912F910F900FBE88
:100C90000F901F90189520910301222341F320917A
:100CA000A001222321F320919E0130919F011092F7
:100CB000A001821B930B803D974008F4B6C081E0F1
:100CC0008093A1019091C302911101C080E08093B3
:100CD000680180916801882309F4A1C088EA8093A3
:100CE0006E0188E580936F018091160180937001F9
:100CF0008091150190E8811101C090E0809113016D
:100D00008F77892B8093710180911A0180937201F2
:100D10008091190190E8811101C090E08091170144
:100D20008F77892B8093730180911E0180937401CA
:100D300080911D0190E8811101C090E080911B011C
:100D40008F77892B809375018091220180937601A2
:100D50008091210190E8811101C090E080911F01F4
:100D60008F77892B80937701809114014FE0849FC6
:100D7000C0011124CF962FE730E0B9010E94710C19
:100D8000CB0154E0880F991F5A95E1F76091050156
:100D90006370682B6093780180911801849FC00173
:100DA0001124CF96B9010E94710CCB0164E0880F29
:100DB000991F6A95E1F7609106016370682B609353
:100DC00079010E94A8028091A6018093A40110924B
:100DD0006D0180916B0180936C0190E080E0FC01DB
:100DE000E259FE4F2081FC01EE56FE4F2083FC01AC
:100DF000E658FE4F2081FC01EA57FE4F2083019602
:100E00008C30910561F71092040181E0809302011A
:100E1000809104018C3030F00E94EA0328CF0E94B8
:100E20004F03CFCF0E94CE0322CF8091A101882310
:100E300009F41DCF80910201880F809302018091F7
:100E400002018111E5CF81E08093020180910401CC
:100E50008F5F80930401809104018C30C8F28CE094
:100E6000809304011092A10180916D018823A9F063
:100E700090916C0180916B0198130FC080916A0171
:100E8000882359F080916A01815080936A01809192
:100E90006A01811102C01092690110926D01809166
:100EA0006801882349F08091C302882329F080914A
:100EB000C30281508093C302109268019091A401F3
:100EC0008091A301981304C08091A20181110BC0ED
:100ED0009091A4018091A60198139ECF8091A401C6
:100EE0008093A50199CF8091A20181508093A201A6
:100EF0008091A201882391F38FCFCF93DF93CDB759
:100F0000DEB728970FB6F894DEBF0FBECDBF78943A
:100F100084B5826084BD84B5816084BD85B58260FE
:100F200085BD85B5816085BD80916E0081608093AF
:100F30006E00109281008091810082608093810018
:100F40008091810081608093810080918000816028
:100F5000809380008091B10084608093B100809183
:100F6000B00081608093B00080917A0084608093AB
:100F70007A0080917A00826080937A0080917A0072
:100F8000816080937A0080917A00806880937A00F3
:100F90001092C10062E080E00E943E01E0911902DF
:100FA000F0911A0292E09083E0911502F0911602FE
:100FB0001082E0911702F09118028FE38083109263
:100FC0002102E0911D02F0911E0286E08083E091F3
:100FD0001B02F0911C02808180618083E0911B02E2
:100FE000F0911C02808188608083E0911B02F09167
:100FF0001C02808180688083E0911B02F0911C02BA
:1010000080818F7D8083F89410928000909381007E
:101010001092850010928400789462E08CE00E9427
:101020003E0161E082E00E943E010E94EA0383B13A
:1010300082958170809303011092A00110929F010C
:1010400010929E01F89480916800816080936800FE
:1010500080916B00806180936B00D89A7894109295
:101060001101109212011092040280E00E94C0034C
:1010700060E084E00E943E0162E085E00E943E0163
:1010800062E086E00E943E0162E087E00E943E014D
:1010900062E088E00E943E0162E089E00E943E0139
:1010A00062E08AE00E943E0162E08BE00E943E0125
:1010B00080917E008F6380937E00F8940E944F039E
:1010C0000E94A8021092A6011092A5011092A401FC
:1010D0001092A3011092A2011092A1018CE08093C2
:1010E000040188E00E94F70378940E94EA031E013D
:1010F00026E0220E311C44244A9413E0512E612C28
:10110000712C89E092E00E94F901181619060CF082
:101110005EC189E092E00E94D701883F90F787FF87
:1011200010C090E8980F903738F0823F21F4109269
:10113000B8011092B90180E08093DD011092DC01CA
:10114000E0CF9091DD019923E1F2E091DC0131E003
:101150003E0F3093DC01F0E0E652FE4F8F77808344
:10116000892F807E803C09F460C3292F207F80E88E
:10117000820F813618F7323020F26091DA019F70C9
:1011800081E0890F203909F054C34091DB014423E9
:1011900009F452C36F774F77803129F58091B701F9
:1011A000A7EAB1E030E020E0281778F4F9019C913B
:1011B0002F5F3F4F12969613F7CFEE0FFF1FE955A3
:1011C000FE4F41830E945304B9CF8830D9F3E82FF2
:1011D000F0E0EE0FFF1FE955FE4F608341838F5F04
:1011E0008093B701EFCF9B50943008F0A7CF8C309D
:1011F00039F08D3099F18E3009F060C082E02BC05B
:10120000F12C0F2D10E0D801AA51BE4F5C9168015E
:10121000E4E0CC0CDD1CEA95E1F790E080E0851776
:1012200000F59C010196FC01EE0FFF1FEC0DFD1D6A
:10123000E854FE4F70817613F2CFF801A3E0EE0F71
:10124000FF1FAA95E1F7E20FF31FEE0FFF1FE65411
:10125000FE4F41838F2D0E941E0470CFFF24F39414
:10126000D0CF583081F0F80133E0EE0FFF1F3A95F0
:10127000E1F7E50FF11DEE0FFF1FE654FE4F60830F
:1012800041835F5F5C93F801E854FE4F8C918111BC
:1012900001C081E0815080830E948F01000F111FE7
:1012A000000F111FF801E252FE4F608371838283A9
:1012B00093836F2D8F2D0E94010540CF83E0CBCF0C
:1012C000832FC3C221502093B7017CCF9B50943011
:1012D00008F034CF8C3041F08D3009F445C08E30A9
:1012E00009F073C082E05BC010E0212F30E0A9015B
:1012F0004A515E4FFA010081D901E4E0AA0FBB1FF9
:10130000EA95E1F790E080E0F82E8017D0F5FC0137
:10131000EE0FFF1FEA0FFB1FE654FE4F7081019690
:101320006713F2CF8F2DB901E3E0660F771FEA95BF
:10133000E1F7EE24E394E80EE016C0F4E82FF0E0C5
:10134000DB01AE0FBF1FAA0FBB1FA654BE4F3196C5
:10135000E60FF71FEE0FFF1FE654FE4F80819181CD
:101360008D939C938E2DE5CF11E0BFCF0150FA01F4
:101370000083F901E854FE4F8081F81610F4815083
:101380008083FA0180817901EE0CFF1CEE0CFF1CBA
:10139000811108C0F701ED5EFE4F6081812F0E9430
:1013A000AE04CCCEF901E854FE4F9081981708F0B6
:1013B00010820E948F01F701E252FE4F6083718319
:1013C00082839383612F812F76CF83E0E8CF0FEA6A
:1013D00012E0F12CE12CF80181918F018823D1F0EA
:1013E0000E948F01F701ED54FD4F80809180A28013
:1013F000B380681979098A099B0997FD0BC0F70129
:10140000ED5EFE4F1282F801319710820E948F012B
:101410000E941404F4E0EF0EF11C20E1E216F10446
:10142000D1F60E948F016B017C018091E601823030
:1014300020F18091DE019091DF01A091E001B09157
:10144000E101A7019601281B390B4A0B5B0BDA015E
:10145000C901B7FD12C060E080E00E940105D7011C
:10146000C6018C549F4FAF4FBF4F8093DE019093C6
:10147000DF01A093E001B093E1018091E7018230A8
:1014800018F18091E2019091E301A091E401B09103
:10149000E501A7019601281B390B4A0B5B0BDA010A
:1014A000C901B7FD11C061E081E00E94010534EB84
:1014B000C30ED11CE11CF11CC092E201D092E301E9
:1014C000E092E401F092E50185E0E3E2F1E0DE0183
:1014D000119601900D928A95E1F70E948F0100917B
:1014E00005021091060220910702309108026B015B
:1014F0007C01C01AD10AE20AF30A9701860103307F
:1015000011052105310548F160930502709306022B
:10151000809307029093080285E00E94F4001EEF7A
:1015200000E0892B11F410E001E086E00E94F40055
:10153000892B11F40F5F11E087E00E94F400892BE2
:1015400011F40F5F12E088E00E94F400892B91F4FF
:101550001FEF002399F01092040280E090E0892BA5
:1015600009F4CFCD0E940502882309F4CACD0E9458
:101570000000C7CD013079F71E3F69F38091120159
:10158000811709F4A7C010931201DD24D394D092DF
:10159000040280910402823098F0809112019091AF
:1015A0001101981769F0809311018FEF8093090161
:1015B00080930A0180930B0180930C0180930D01AD
:1015C0009E012F5F3F4F38872F831E82EF81F88562
:1015D0001191F887EF83C12ED12CF601E65CFE4F06
:1015E0000081802F0E947A018BE391E00197F1F74F
:1015F000802F0E947A017C01802F0E947A014C0189
:10160000802F0E947A01E80CF91C8E0D9F1D019617
:1016100063E070E00E94850CC601880F991FFC01F1
:10162000EC50FE4F408151819A01220F331F240F4D
:10163000351F620F731FDB011296B7FD1396B59528
:10164000A795B595A7958C509E4FFC01B183A083BB
:10165000A115F4E0BF0714F0AFEFB3E0B7FF02C08D
:10166000B0E0A0E02FE730E00E94B80CA3019201A7
:101670000E94990C4901F601E75FFE4F80818F3F80
:1016800041F090E06901C81AD90AC6010496099789
:10169000A0F0882D80820091110142EF51E01123CA
:1016A00021F0113001F540EF51E0682D802F0E94AC
:1016B000D800182FDE80D12ADE82EF80F8842E1425
:1016C0003F0409F083CFFE80FF2009F446CF0E943B
:1016D000140443CF809104028F3F09F45ACF8F5FE7
:1016E0008093040256CF4EEE51E01330F1F247E002
:1016F00051E01230D1F2143049F585E09594879489
:101700008A95E1F7282D0F3F79F43091050110E01B
:10171000831619F08092050111E03091060123171C
:1017200049F28092060108C0011108C030910501FC
:10173000831651F08092050111E0BCCF013021F4F5
:10174000309106018312EDCF10E0B4CF163089F549
:101750008A3008F480E09FEF900F9E3F08F190914F
:10176000EB0110E0891719F08093EB0111E00F3FB6
:10177000D1F49091EC018917D1F08093EC0191E0C4
:10178000192B023019F00F3F09F094CF9091ED0121
:10179000891709F448C08093ED0181E0182B8ACFA6
:1017A00010E0013031F3023009F084CFEFCF90E048
:1017B000E7CF173049F68FEF800F8E3F48F1109139
:1017C000E801612F882D0E948C00181741F1809349
:1017D000E80111E00F3FF9F4F090E9016F2D882D39
:1017E0000E948C00F816E9F08093E90181E0182B43
:1017F000023019F00F3F09F05DCF0091EA01602F30
:10180000882D0E948C00081771F08093EA01C5CFE3
:1018100010E0013009F3023009F04CCFEECF10E0B8
:10182000D9CF80E0E4CF80E0B9CF332309F469CC8D
:1018300085CC203809F082CC6F77803109F046CD15
:101840002091B701E7EAF1E080E0281709F4BACC6B
:10185000908131E0380F3296691332CD31E0380F84
:10186000321708F02FCD90E0DC01AA0FBB1FA9555D
:10187000BE4F880F991FFC01E755FE4F8081918173
:101880008D939C93832FEACFE9E0F2E013821282DA
:1018900088EE93E0A0E0B0E084839583A683B783CD
:1018A0008CE291E09183808385EC90E0958784873A
:1018B00084EC90E09787868780EC90E0918B808B1A
:1018C00081EC90E0938B828B82EC90E0958B848B03
:1018D00086EC90E0978B868B118E128E138E148E71
:1018E0000895AA1BBB1B51E107C0AA1FBB1FA61767
:1018F000B70710F0A61BB70B881F991F5A95A9F7B9
:1019000080959095BC01CD01089597FB072E16F4A4
:10191000009407D077FD09D00E94710C07FC05D018
:101920003EF4909581959F4F0895709561957F4FF6
:101930000895052E97FB1EF400940E94B00C57FDED
:1019400007D00E94BF0C07FC03D04EF40C94B00CDF
:1019500050954095309521953F4F4F4F5F4F0895DB
:1019600090958095709561957F4F8F4F9F4F08950B
:101970000E94E70CB7FF0895821B930B0895A1E224
:101980001A2EAA1BBB1BFD010DC0AA1FBB1FEE1FF9
:10199000FF1FA217B307E407F50720F0A21BB30B44
:1019A000E40BF50B661F771F881F991F1A9469F7C0
:1019B00060957095809590959B01AC01BD01CF011C
:1019C0000895EE0FFF1F0590F491E02D0994A29F5A
:1019D000B001B39FC001A39F700D811D1124911D03
:1019E000B29F700D811D1124911D0895F894FFCFB1
:1019F000406E01010C02027F7FFFFFFFFFFFFFFF30
:101A0000FF01013C6E0000406E0000306E000024BB
:101A10006E00000001020304000000003B029B0175
:101A2000C8018802F901D701EB010E0F1011120055
:107E0000112484B714BE81FFF0D085E080938100F7
:107E100082E08093C00088E18093C10086E0809377
:107E2000C20080E18093C4008EE0C9D0259A86E02C
:107E300020E33CEF91E0309385002093840096BBD3
:107E4000B09BFECF1D9AA8958150A9F7CC24DD24C4
:107E500088248394B5E0AB2EA1E19A2EF3E0BF2EE7
:107E6000A2D0813461F49FD0082FAFD0023811F036
:107E7000013811F484E001C083E08DD089C08234E0
:107E800011F484E103C0853419F485E0A6D080C0E4
:107E9000853579F488D0E82EFF2485D0082F10E0AE
:107EA000102F00270E291F29000F111F8ED06801E7
:107EB0006FC0863521F484E090D080E0DECF843638
:107EC00009F040C070D06FD0082F6DD080E0C81688
:107ED00080E7D80618F4F601B7BEE895C0E0D1E017
:107EE00062D089930C17E1F7F0E0CF16F0E7DF06D8
:107EF00018F0F601B7BEE89568D007B600FCFDCFD4
:107F0000A601A0E0B1E02C9130E011968C91119780
:107F100090E0982F8827822B932B1296FA010C0160
:107F200087BEE89511244E5F5F4FF1E0A038BF0790
:107F300051F7F601A7BEE89507B600FCFDCF97BE46
:107F4000E89526C08437B1F42ED02DD0F82E2BD052
:107F50003CD0F601EF2C8F010F5F1F4F84911BD097
:107F6000EA94F801C1F70894C11CD11CFA94CF0C13
:107F7000D11C0EC0853739F428D08EE10CD085E9AC
:107F80000AD08FE07ACF813511F488E018D01DD067
:107F900080E101D065CF982F8091C00085FFFCCF94
:107FA0009093C60008958091C00087FFFCCF809118
:107FB000C00084FD01C0A8958091C6000895E0E648
:107FC000F0E098E1908380830895EDDF803219F02E
:107FD00088E0F5DFFFCF84E1DECF1F93182FE3DFCA
:107FE0001150E9F7F2DF1F91089580E0E8DFEE27F6
:047FF000FF270994CA
:027FFE00040479
:00000001FF
