:100000000C9462000C948A000C948A000C947A067A
:100010000C948A000C948A000C948A000C948A0038
:100020000C948A000C948A000C948A000C948A0028
:100030000C948A000C948A000C948A000C948A0018
:100040000C94D8050C948A000C9448060C94220653
:100050000C948A000C948A000C948A000C948A00F8
:100060000C948A000C948A000000000025002800EF
:100070002B0000000000240027002A0000000000E0
:1000800023002600290004040404040404040202DA
:100090000202020203030303030301020408102007
:1000A0004080010204081020010204081020000012
:1000B0000008000201000003040700000000000027
:1000C0000000170D11241FBECFEFD8E0DEBFCDBF5B
:1000D00011E0A0E0B1E0E6E9FBE102C005900D927D
:1000E000A634B107D9F722E0A6E4B1E001C01D9221
:1000F000A93FB207E1F710E0C2E6D0E004C02197C3
:10010000FE010E94B40DC136D107C9F70E94EB076A
:100110000C94C90D0C940000CF93C82F262F841780
:1001200008F44DC0E82FF0E050E0BF01641B750BF0
:100130003FE0369FC001379F900D1124CE966FE7A8
:1001400070E0641B750B0E94440D362F2617A1F139
:100150007727CB01422F50E0DA0111966A177B070F
:10016000C1F44FE7469FC001479F900D11240796A9
:100170006FE070E00E94440D77276E5F7F4FE617B7
:10018000F707D4F4322F18C0422F50E030E090E04F
:1001900080E001968417950779F4EC2FF0E0329611
:1001A0004FE7249FC001112407966FE070E00E9482
:1001B000440D6E171F0634F3832FCF9108956111FC
:1001C000E3CF30E0F9CF982FFA018FEF890F8E3F00
:1001D00070F08081861779F0608381E09F3F31F471
:1001E0009181691751F0618391E0892B089580E036
:1001F0009130B1F3089580E0F1CF90E0F6CF90E038
:10020000FC01E255FF4F2491FC01E656FF4F34916B
:10021000FC01EA57FF4FE491EE23C1F1222339F0AC
:100220002330E9F090F4213001F1223011F1F0E0B7
:10023000EE0FFF1FE458FF4FA591B491EC91E3231B
:1002400081E090E029F580E008952730A9F028307A
:10025000C9F0243061F7809180008F7D03C08091C8
:1002600080008F7780938000E2CF84B58F7784BD44
:10027000DECF84B58F7DFBCF8091B0008F778093E8
:10028000B000D5CF8091B0008F7DF9CF80E090E0B5
:100290000895CF93DF9390E0FC01E656FF4F249141
:1002A0008A579F4FFC0184918823D1F090E0880FFA
:1002B000991FFC01EE58FF4FA591B491FC01E8593C
:1002C000FF4FC591D491623071F49FB7F8943C917F
:1002D000822F809583238C93E8812E2B28839FBFC8
:1002E000DF91CF9108958FB7F894EC912E2B2C933A
:1002F0008FBFF6CF8E3008F08E5087708064809369
:100300007C0080917A00806480937A0080917A00EA
:1003100086FDFCCF809178009091790008952FB7E9
:10032000F8946091F5027091F6028091F702909135
:10033000F8022FBF0895AF92BF92CF92DF92EF9253
:10034000FF920F931F93CF93DF936C017B018B017F
:10035000040F151FEB015E01AE18BF08C017D107CF
:1003600059F06991D601ED91FC910190F081E02D59
:10037000C6010995892B79F7C501DF91CF911F91AE
:100380000F91FF90EF90DF90CF90BF90AF900895C6
:10039000FC01538D448D252F30E0842F90E0821B8B
:1003A000930B541710F0CF96089501970895FC0110
:1003B000918D828D981761F0A28DAE0FBF2FB11D68
:1003C0005D968C91928D9F5F9F73928F90E00895C0
:1003D0008FEF9FEF0895FC01918D828D981731F07A
:1003E000828DE80FF11D858D90E008958FEF9FEFCE
:1003F0000895FC01918D228D892F90E0805C9F4FA4
:10040000821B91098F739927089583E592E00E94DA
:10041000F90121E0892B09F420E0822F089580E082
:1004200090E0892B29F00E94050281110C940000B4
:100430000895FC01A48DA80FB92FB11DA35ABF4F79
:100440002C91848D90E001968F739927848FA689D3
:10045000B7892C93A089B1898C91837080648C9327
:10046000938D848D981306C00288F389E02D8081D6
:100470008F7D80830895EF92FF920F931F93CF9308
:10048000DF93EC0181E0888F9B8D8C8D98131AC0CF
:10049000E889F989808185FF15C09FB7F894EE89B6
:1004A000FF896083E889F989808183708064808313
:1004B0009FBF81E090E0DF91CF911F910F91FF905E
:1004C000EF900895F62E0B8D10E00F5F1F4F0F7306
:1004D0001127E02E8C8D8E110CC00FB607FCFACFC1
:1004E000E889F989808185FFF5CFCE010E94190244
:1004F000F1CFEB8DEC0FFD2FF11DE35AFF4FF08292
:100500009FB7F8940B8FEA89FB8980818062CFCFF7
:10051000CF93DF93EC01888D8823B9F0AA89BB893A
:10052000E889F9898C9185FD03C0808186FD0DC025
:100530000FB607FCF7CF8C9185FFF2CF808185FF46
:10054000EDCFCE010E941902E9CFDF91CF9108953E
:10055000DF92EF92FF920F931F93CF93DF93D82FE9
:100560008B01E42E93E0F92E6F51724011F482E07A
:10057000F82E8FEF8D0F8E3FA8F1F801C0814F2D1F
:100580006C2F8E2D0E948C00C81791F1F80180838A
:10059000C1E0DF3F51F5F801D1804F2D6D2D8E2D3B
:1005A0000E948C00D81631F1F801818381E0C82BBC
:1005B000D23011F0DF3F69F4F801D2814F2D6D2F59
:1005C0008E2D0E948C00D817B9F0F801828381E04B
:1005D000C82B8C2FDF91CF911F910F91FF90EF903F
:1005E000DF900895C0E0D130B1F2D23091F7E4CF7E
:1005F000C0E0CFCF80E0DBCF80E0EACF982F8FEF55
:10060000890F8E3FF0F080919801681701F1609397
:10061000980181E09F3FC1F4209199016217C9F0D0
:100620006093990121E0822B923011F09F3F71F489
:1006300090919A01691779F060939A0191E0892B62
:10064000089580E0913041F3923091F3089580E075
:10065000E1CF20E0E8CF90E0F2CFEF92FF921F933E
:10066000CF93DF93182F0E947A018BE391E00197DB
:10067000F1F7812F0E947A01EC01812F0E947A010B
:100680007C01812F0E947A01CE0DDF1D8C0F9D1FF2
:10069000019663E070E00E94580DCB01DF91CF918D
:1006A0001F91FF90EF90089589E00E94FF00892B31
:1006B00069F08AE00E94FF00892B51F08BE00E94D4
:1006C000FF00892B39F080914B02089580E0089556
:1006D00081E0089582E00895CF9385E00E94FF00B5
:1006E000C1E0892B09F0C0E086E00E94FF00892B61
:1006F00009F4C26087E00E94FF00892B09F4C460FE
:1007000088E00E94FF00892B09F4C860C0FF04C084
:100710008C2F8E7009F0CE7F9C2F91704C2F4270E1
:1007200081E0890FC1FF892F3C2F3470C2FD8F5F9C
:100730002C2F2870C3FD8F5F813051F491110AC0B6
:10074000411109C082E0311106C08FEF211103C0B1
:100750008EEF01C080E0CF910895CF93DF93ECE856
:10076000F1E084ED80838DE48183C2ECD1E0888167
:1007700090E1899F9001112489818F70822B82835F
:100780004FE152E0DA018C91B0E18B9F900111248E
:10079000DA0111968C918F70822B8383A8E9B1E0E6
:1007A0008C9120E1829FC0011124807311969C914D
:1007B00011979370892B84838A8190E1899F90019E
:1007C0001124EA018A818F70822B858312968C9185
:1007D0008370868317821086118612861386DF91B6
:1007E000CF9108950F931F93CF93DF93E0E8F1E04B
:1007F00083ED80838DE3818309E212E0D8018C913F
:100800004FE0849FC0011124CF962FE730E0B9015B
:100810000E94440DEB0184E0CC0FDD1F8A95E1F7C7
:10082000D80111968C91849FC0011124CF96B901F3
:100830000E94440DC62BC28307E212E0D8018C91BE
:10084000849FC0011124CF96B9010E94440DEB0191
:1008500094E0CC0FDD1F9A95E1F7D80111968C91A9
:10086000849FC0011124CF96B9010E94440DC62B6C
:10087000C38307E111E0D8018C91849FC00111244A
:10088000CF96B9010E94440DEB0154E0CC0FDD1F5F
:100890005A95E1F7D80111968C91849FC0011124DB
:1008A000CF96B9010E94440DC62BC48305E212E025
:1008B000D8018C91849FC0011124CF96B9010E9468
:1008C000440DEB0164E0CC0FDD1F6A95E1F7D80120
:1008D00011968C91849FC0011124CF96B9010E947A
:1008E000440DC62BC583A5E1B1E08C9190E1899FB1
:1008F0009001112411968C918F70822B8683178220
:100900001086118612861386DF91CF911F910F9169
:1009100008958091060140E0803238F041E0803453
:1009200020F043E0803608F442E080910A0120E0A4
:10093000803238F021E0803420F023E0803608F463
:1009400022E088EA809374018AE5809375018091A2
:100950000801809376018091070190E0811190E871
:10096000809105018F77892B8093770180910C010D
:100970008093780180910B0190E0811190E8809143
:1009800009018F77892B80937901809110018093E1
:100990007A0180910F0190E0811190E880910D0122
:1009A0008F77892B80937B0110927C0180911F02AD
:1009B00030E1839FB00111248091C2018F70862B9A
:1009C00080937D019091C30130E1939FC001112478
:1009D000909115019370982B84E0489FA0011124F9
:1009E000942B90937E018091200290E1899FA00139
:1009F0001124809116018370842B94E0299F90012B
:100A00001124822B80937F010895549A882311F03A
:100A10005C9A08955C980895539A882311F05B9A24
:100A200008955B980895529A882311F05A9A089570
:100A30005A980895E0910401F0E0ED54FE4F908142
:100A400080910201982381E009F480E00E9413055F
:100A5000E0910401F0E0E955FE4F908180910201A0
:100A6000982381E009F480E00E940C05E0910401E4
:100A7000F0E0E556FE4F908180910201982381E0DD
:100A800009F480E00C9405052091CA019091C901F8
:100A900081E0291301C080E00E94130580E00E94DC
:100AA0000C0580E00C9405059091CA019F5F90931E
:100AB000CA012091CA019091C901291305C09091E2
:100AC000CA019F5F9093CA019091CA019093C70198
:100AD0008093C6018091C501811102C00C94440528
:100AE0000895F8940E9489040E94F2030E94AD03C5
:100AF00081E00E945405789408950E948F013091FE
:100B0000DB018091070120910B01332321F19091AA
:100B1000CB01882321F0809105018917D1F08091C4
:100B200008018F5F8093080181E090930501909107
:100B3000CC01911101C091E09093060191E0909356
:100B40000701323070F4222331F110920B0181E061
:100B500022C080E0EACF882341F11092070181E0B2
:100B6000F2CF9091CD01222321F020910901291784
:100B700031F080910C018F5F80930C0181E09093A4
:100B800009019091CE01911101C091E090930A0169
:100B900091E090930B011092E1011092E20110920A
:100BA000E301882321F00C94710580E0CCCF0895F7
:100BB0001F920F920FB60F9211242F933F938F9392
:100BC0009F93AF93BF938091F5029091F602A0910D
:100BD000F702B091F8023091F40223E0230F2D3791
:100BE00058F50196A11DB11D2093F4028093F502E2
:100BF0009093F602A093F702B093F8028091F0026E
:100C00009091F102A091F202B091F3020196A11D20
:100C1000B11D8093F0029093F102A093F202B09381
:100C2000F302BF91AF919F918F913F912F910F90C0
:100C30000FBE0F901F90189526E8230F0296A11D56
:100C4000B11DD2CF1F920F920FB60F9211242F9386
:100C50003F934F935F936F937F938F939F93AF9344
:100C6000BF93EF93FF9383E592E00E941902FF91F7
:100C7000EF91BF91AF919F918F917F916F915F9114
:100C80004F913F912F910F900FBE0F901F9018958D
:100C90001F920F920FB60F9211242F938F939F9351
:100CA000EF93FF93E0916302F09164028081E09101
:100CB0006902F0916A0282FD1BC0908180916C02F2
:100CC0008F5F8F7320916D02821741F0E0916C026B
:100CD000F0E0ED5AFD4F958F80936C02FF91EF91FC
:100CE0009F918F912F910F900FBE0F901F9018958D
:100CF0008081F4CF1F920F920FB60F9211242F9381
:100D00003F934F935F936F937F938F939F93AF9393
:100D1000BF93CF93EF93FF9383B1C1E0282F20714E
:100D200084FFC0E080918400909185002223F9F037
:100D300020910301211107C09093C0018093BF014E
:100D400081E08093C101C0930301FF91EF91CF91A6
:100D5000BF91AF919F918F917F916F915F914F91D3
:100D60003F912F910F900FBE0F901F9018952091DB
:100D70000301222341F32091C101222321F3209179
:100D8000BF013091C0011092C101821B930B803DC5
:100D9000974008F4B8C081E08093C5019091DC01D0
:100DA000911101C080E080936E0188EA8093740104
:100DB00088E5809375018091080180937601809188
:100DC000070190E8811101C090E0809105018F77C3
:100DD000892B8093770180910C0180937801809119
:100DE0000B0190E8811101C090E0809109018F779B
:100DF000892B809379018091100180937A018091F1
:100E00000F0190E8811101C090E080910D018F7772
:100E1000892B80937B018091140180937C018091C8
:100E2000130190E8811101C090E0809111018F774A
:100E3000892B80937D01809106014FE0849FC00142
:100E40001124CF962FE730E0B9010E94440DCB0169
:100E500054E0880F991F5A95E1F76091150163706E
:100E6000682B60937E0180910A01849FC001112448
:100E7000CF96B9010E94440DCB0164E0880F991F01
:100E80006A95E1F7609116016370682B60937F01AA
:100E90000E94F2030E94AD038091CA018093C801B1
:100EA00010927301809171018093720190E080E053
:100EB000FC01EC58FE4F2081FC01ED54FE4F2083D5
:100EC000FC01E058FE4F2081FC01E955FE4F2083D4
:100ED000FC01E457FE4F2081FC01E556FE4F2083C4
:100EE00001968C30910521F71092040181E08093E6
:100EF0000201809104018C3018F00E94440523CF38
:100F00000E941A0520CF8091C501882309F41BCFC8
:100F100080910201880F809302018091020181116A
:100F2000E8CF81E080930201809104018F5F80937C
:100F30000401809104018C30E0F28CE08093040184
:100F40001092C501809173018823A9F090917201DC
:100F50008091710198130FC080917001882359F01E
:100F60008091700181508093700180917001811196
:100F700002C010926F011092730180916E0188235C
:100F800049F08091DC01882329F08091DC018150B7
:100F90008093DC0110926E019091C8018091C7018D
:100FA000981304C08091C60181110BC09091C801B3
:100FB0008091CA019813A1CF8091C8018093C90183
:100FC0009CCF8091C60181508093C6018091C6015B
:100FD000882391F392CFCF93DF93CDB7DEB76B9792
:100FE0000FB6F894DEBF0FBECDBF789484B5826093
:100FF00084BD84B5816084BD85B5826085BD85B5BD
:10100000816085BD80916E00816080936E0010923A
:1010100081008091810082608093810080918100B5
:101020008160809381008091800081608093800046
:101030008091B10084608093B1008091B0008160A4
:101040008093B00080917A00846080937A008091D0
:101050007A00826080937A0080917A008160809328
:101060007A0080917A00806880937A001092C100A3
:1010700062E080E00E944901E0916302F091640225
:1010800092E09083E0915F02F09160021082E09123
:101090006102F09162028FE3808310926B02E09113
:1010A0006702F091680286E08083E0916502F0912A
:1010B0006602808180618083E0916502F091660222
:1010C000808188608083E0916502F0916602808172
:1010D00080688083E0916502F091660280818F7D57
:1010E0008083F89410928000909381001092850084
:1010F00010928400789462E08CE00E94490161E0E3
:1011000082E00E9449010E94440583B1829581706A
:10111000809303011092C1011092C0011092BF018F
:10112000F8948091680081608093680080916B00E2
:10113000806180936B00D89A78941092210110926C
:10114000220110924E0280E00E940C0580E00E9475
:10115000050562E085E00E94490162E086E00E94A8
:10116000490162E087E00E94490162E088E00E9454
:10117000490162E089E00E94490162E08AE00E9440
:10118000490162E08BE00E94490180917E008F63FB
:1011900080937E000E946C03F82E8093210180933F
:1011A000220114E010934E020E945403E82E809313
:1011B0004B0280934D0210934C0287E0E3E2F1E092
:1011C000DE01119601900D928A95E1F79E012F5F45
:1011D0003F4F69015E0138E0A30EB11C44244A94DC
:1011E00033E0532E612C712CD6010D916D0110E06E
:1011F000F801E25CFE4F80810E942D03F801EE0FA2
:10120000FF1FE55CFD4F80839183DC0181159440D5
:1012100014F0AFEFB3E0B7FF02C0B0E0A0E02FE7FB
:1012200030E00E948B0DA30192010E946C0DF80129
:10123000E75EFE4F2083F801E55DFD4F2083F80156
:10124000ED5CFD4F1082AC14BD0471F610922902C2
:10125000109227029FE7909317011092250282E0D7
:101260008093150110922A0210922802909318017F
:101270001092260280931601FEEFFF1671F0409146
:101280001F0162EC71E08F2D0E94A80240912001A5
:101290006FE172E08F2D0E94A8026E2D8F2D0E94AB
:1012A000FE020E947105F8940E9489040E94F203D4
:1012B0000E94AD031092CA011092C9011092C80198
:1012C0001092C7011092C6011092C5018CE0809364
:1012D000040188E00E94540578940E9444059E0110
:1012E000215F3F4F388B2F8783E592E00E94F90101
:1012F000181619060CF0EFC083E592E00E94D701A2
:10130000883F90F787FF10C090E8980F903738F02B
:10131000823F21F4109215021092160280E0809311
:10132000E0011092DF01E0CF9091E0019923E1F21A
:10133000E091DF0131E03E0F3093DF01F0E0E35256
:10134000FE4F8F778083892F807E803C09F43FC3D6
:10135000292F207F80E8820F813618F7323020F263
:101360001091DD019F7081E0890F203909F033C3AE
:101370002091DE01222309F431C31F77F22EE89475
:10138000F7F8803129F58091DB01ABECB1E030E07A
:1013900020E0281778F4F9019C912F5F3F4F1296B7
:1013A0009113F7CFEE0FFF1FE553FE4FF1820E941E
:1013B0007D05B7CF8830D9F3E82FF0E0EE0FFF1F9F
:1013C000E553FE4F1083F1828F5F8093DB01EFCFF7
:1013D0009B50943008F0A5CF00E08C3039F001E04C
:1013E0008D3021F002E08E3009F003E00E948F0181
:1013F000202F30E0A901440F551F440F551FFA015B
:10140000EB5FFE4F1083F11002C0FF24F394FA014A
:10141000EB5FFE4FF182A1E0A283A381AF5FA383C4
:10142000FA01EB51FE4F60837183828393832F51C6
:101430003E4FF9011082023029F4F894F1E0F09364
:10144000DC0178940E9471056CCF842FD1C2315099
:101450003093DB01ACCF9B50943008F062CF10E0AA
:101460008C3039F011E08D3021F012E08E3009F02F
:1014700013E0E12EF12C6701CC0CDD1CCC0CDD1C43
:10148000A6014B5F5E4F4A01DA018C91281349CFC8
:101490000E948F01F601EB51FE4F40805180628027
:1014A00073806419750986099709F701EF51FE4F9A
:1014B00097FF03C0B1E0B08334CFD40112961C92E1
:1014C00010820E948F01123009F0BCCFF894B1E075
:1014D000B093DC01B6CFE1EEF1E0FC8BEB8B6F015A
:1014E00010E000E0D6018D916D018823D1F00E94BB
:1014F0008F01F801EB51FE4F408051806280738074
:10150000641975098609970997FD0BC0F801EB5F0F
:10151000FE4F1282F601319710820E948F010E94C5
:1015200071050C5F1F4F00311105E1F60E948F011C
:101530006B017C01ECE3F1E0FF8BEE8B27E132E005
:101540003A8B298B35E0232E31E0332E05E112E072
:10155000912C812CDC01CB018C549F4FAF4FBF4F9E
:10156000888F998FAA8FBB8FAE89BF89ED91BF8B72
:10157000AE8BED8BE23008F454C0E989FA898081A2
:101580009181A281B381A7019601281B390B4A0BD7
:101590005B0BDA01C901B7FD44C00E948F012B012A
:1015A0003C01D8018C91BD898B1710F0F801108295
:1015B000D8018C9190E0F401EE0FFF1FE80FF91FA6
:1015C000EE0FFF1FEB50FE4F208131810196BD8948
:1015D0006B2F70E00E94580DF8018083D1012C938D
:1015E000311101C031E0F101318321E02283838197
:1015F0008F5F8383F401EB51FE4F40825182628200
:101600007382AB89BC891C920E947105288D398D2B
:101610004A8D5B8DA989BA892D933D934D935C9337
:101620001397E989FA893496FA8BE98BF4E02F0E47
:10163000311C2B893C892F5F3F4F3C8B2B8B0F5FDD
:101640001F4F34E0830E911C48E08416910409F08A
:101650008BCF87E0E3E2F1E0DE01189601900D9276
:101660008A95E1F70E948F01C0904F02D0905002FE
:10167000E0905102F09052029B01AC012C193D09FF
:101680004E095F0969017A0133E0C316D104E10410
:10169000F10470F060934F027093500280935102F6
:1016A000909352020E946C038E3F79F410924E0286
:1016B00020E030E0232B09F417CE0E940502882396
:1016C00009F412CE0E9400000ACE909122018917DF
:1016D00009F4F3C08093220141E040934E028091CF
:1016E0004E02843008F443C0809122019091210180
:1016F0009817E9F18093210187E0E3E2F1E0DE0150
:10170000119601900D928A95E1F7CE0101966C0138
:10171000D601ED906D01F12CF701EE0FFF1FE55C96
:10172000FD4FA081B181A115E4E0BE0714F0AFEF39
:10173000B3E0B7FF02C0B0E0A0E02FE730E00E94C6
:101740008B0D2FEF33E040E050E00E946C0DF7016D
:10175000E55DFD4F2083F701E75EFE4F2083F70133
:10176000ED5CFD4F21E02083AC14BD0489F60E949E
:10177000540390914D02891709F4A8C080934D023B
:1017800031E030934C0280914C02843008F4A7C0C1
:1017900060914D0280914B02861709F4A0C06093BE
:1017A0004B02809121010E94FE02982E6501D60114
:1017B0001D916D01E12EF12CF701E25CFE4F80815D
:1017C0000E942D039701220F331FF901E55CFD4FA5
:1017D00060817181AB01440F551F460F571F840F65
:1017E000951FDC011296B7FD1396B595A795B59593
:1017F000A795255C3D4FF901B183A083A115F4E0C5
:10180000BF0714F0AFEFB3E0B7FF02C0B0E0A0E055
:101810002FE730E00E948B0D2FEF33E040E050E0E7
:101820000E946C0DB901F701ED5CFD4F2081222370
:1018300079F0D701A55DBD4F2C9130E0AB01421B83
:10184000530B9A01295F3F4F2F30310550F1108221
:10185000F701E75EFE4F20812F3F99F030E0DB017A
:10186000A21BB30B9D01B7FF03C031952195310930
:101870004AEF410F4230A8F542E050E02417350707
:1018800084F0362F60832091210149E252E0112338
:1018900021F0113049F547E252E0822F0E94E30027
:1018A000982AEF85F889EC15FD0509F080CF99207D
:1018B00009F4FECE0E947105FBCE80914E028F3F4F
:1018C00009F40DCF8F5F80934E0209CF80914C02B7
:1018D0008F3F09F458CF8F5F80934C0254CF912CE7
:1018E00065CF45E050E0CACF45E252E01330A9F29F
:1018F00047E151E0123089F2143059F585E07595D1
:1019000067958A95E1F7962F2F3F89F4809115010D
:10191000681759F06093150181E020911601921724
:1019200009F4BECF609316010AC080E0F6CF211102
:1019300008C080911501681751F06093150181E08E
:10194000AFCF213021F4809116016813EBCF80E0F6
:10195000A7CF163099F56A3008F430E08FEF820F88
:101960008E3FF8F080912202381711F13093220255
:1019700081E02F3FC9F4909123023917D9F03093B9
:10198000230291E0892B223019F02F3F09F088CFF4
:1019900090912402391781F03093240291E0892B31
:1019A0007FCF80E0213039F3223009F079CFF0CFBA
:1019B00080E0DFCF90E0E6CF90E0F1CF173039F64E
:1019C000462F6FE172E0822F0E94A80269CF332375
:1019D00009F48ACCA6CC203809F0A3CC212F2F778C
:1019E000803109F038CD3091DB01EBECF1E080E0A3
:1019F000381709F4DCCC908141E0480F3296291366
:101A000024CD21E0280F231708F021CD90E0DC0140
:101A1000AA0FBB1FA553BE4F880F991FFC01E353AC
:101A2000FE4F808191818D939C93822FEACFE3E5D5
:101A3000F2E01382128288EE93E0A0E0B0E08483AB
:101A40009583A683B7838EE291E09183808385ECB2
:101A500090E09587848784EC90E09787868780EC78
:101A600090E0918B808B81EC90E0938B828B82EC69
:101A700090E0958B848B86EC90E0978B868B118E13
:101A8000128E138E148E0895AA1BBB1B51E107C042
:101A9000AA1FBB1FA617B70710F0A61BB70B881FFE
:101AA000991F5A95A9F780959095BC01CD0108958D
:101AB00097FB072E16F4009407D077FD09D00E94FB
:101AC000440D07FC05D03EF4909581959F4F0895F5
:101AD000709561957F4F0895052E97FB1EF4009435
:101AE0000E94830D57FD07D00E94920D07FC03D082
:101AF0004EF40C94830D50954095309521953F4FB1
:101B00004F4F5F4F089590958095709561957F4FE9
:101B10008F4F9F4F08950E94BA0DB7FF0895821B03
:101B2000930B0895A1E21A2EAA1BBB1BFD010DC049
:101B3000AA1FBB1FEE1FFF1FA217B307E407F5077D
:101B400020F0A21BB30BE40BF50B661F771F881F59
:101B5000991F1A9469F760957095809590959B01EF
:101B6000AC01BD01CF010895EE0FFF1F0590F49168
:101B7000E02D0994A29FB001B39FC001A39F700DF7
:101B8000811D1124911DB29F700D811D1124911D85
:061B90000895F894FFCF58
:101B9600406E01010C3C6E0000406E0000306E008D
:101BA60000246E000002027F7FFFFFFFFFFFFFFFA2
:101BB600FF010100010203040607000000003B02CA
:101BC6009B01C8018802F901D701EB0100000E0F45
:061BD6001011121314159A
:00000001FF
